:020000040800F2
:1000000000200020C11100084D0800084F0800081A
:1000100000000000000000000000000000000000E0
:10002000000000000000000000000000510800086F
:1000300000000000000000005308000855080008F8
:100040001112000811120008111200081112000804
:1000500011120008111200081112000811120008F4
:1000600011120008111200081112000811120008E4
:1000700011120008111200081112000811120008D4
:1000800011120008111200080000000011120008EF
:1000900011120008111200081112000811120008B4
:1000A00011120008111200081112000811120008A4
:1000B00011120008000000001112000800000000EA
:1000C00010B5064C2378002B07D1054B002B02D02E
:1000D000044800E000BF0123237010BD4404002049
:1000E0000000000084140008044B10B5002B03D05E
:1000F0000349044800E000BF10BDC04600000000F6
:100100004804002084140008002243088B4274D362
:1001100003098B425FD3030A8B4244D3030B8B4208
:1001200028D3030C8B420DD3FF22090212BA030C11
:100130008B4202D31212090265D0030B8B4219D3F2
:1001400000E0090AC30B8B4201D3CB03C01A524112
:10015000830B8B4201D38B03C01A5241430B8B425A
:1001600001D34B03C01A5241030B8B4201D30B0343
:10017000C01A5241C30A8B4201D3CB02C01A52416A
:10018000830A8B4201D38B02C01A5241430A8B422D
:1001900001D34B02C01A5241030A8B4201D30B0216
:1001A000C01A5241CDD2C3098B4201D3CB01C01A30
:1001B000524183098B4201D38B01C01A524143093A
:1001C0008B4201D34B01C01A524103098B4201D328
:1001D0000B01C01A5241C3088B4201D3CB00C01A95
:1001E000524183088B4201D38B00C01A524143080D
:1001F0008B4201D34B00C01A5241411A00D2014632
:10020000524110467047FFE701B5002000F0F0F8BA
:1002100002BDC0460029F7D076E7704703460B437E
:100220007FD4002243088B4274D303098B425FD3EF
:10023000030A8B4244D3030B8B4228D3030C8B421B
:100240000DD3FF22090212BA030C8B4202D3121201
:10025000090265D0030B8B4219D300E0090AC30BD6
:100260008B4201D3CB03C01A5241830B8B4201D383
:100270008B03C01A5241430B8B4201D34B03C01A6C
:100280005241030B8B4201D30B03C01A5241C30AE4
:100290008B4201D3CB02C01A5241830A8B4201D355
:1002A0008B02C01A5241430A8B4201D34B02C01A3F
:1002B0005241030A8B4201D30B02C01A5241CDD2E4
:1002C000C3098B4201D3CB01C01A524183098B422F
:1002D00001D38B01C01A524143098B4201D34B0118
:1002E000C01A524103098B4201D30B01C01A52417B
:1002F000C3088B4201D3CB00C01A524183088B4202
:1003000001D38B00C01A524143088B4201D34B00EA
:10031000C01A5241411A00D201465241104670475C
:100320005DE0CA0F00D04942031000D34042534061
:1003300000229C4603098B422DD3030A8B4212D321
:10034000FC22890112BA030A8B420CD38901921153
:100350008B4208D3890192118B4204D389013AD090
:10036000921100E08909C3098B4201D3CB01C01A65
:10037000524183098B4201D38B01C01A5241430978
:100380008B4201D34B01C01A524103098B4201D366
:100390000B01C01A5241C3088B4201D3CB00C01AD3
:1003A000524183088B4201D38B00C01A5241D9D2EB
:1003B00043088B4201D34B00C01A5241411A00D26C
:1003C0000146634652415B10104601D34042002B68
:1003D00000D54942704763465B1000D3404201B5E7
:1003E000002000F005F802BD0029F8D016E770479C
:1003F0007047C046F0B5CE46474615042D0C2E007A
:1004000080B50704140C3F0C9946030C7E435D43F2
:10041000674363437F19340CE4199C46A54203D912
:1004200080235B029846C4444B4643435143250C0A
:1004300036046544360C2404A4195B1959182000AD
:100440000CBC90469946F0BD80B5024E013E002E90
:10045000FCD180BD60EA0000F0B5CE46474680B5CD
:100460008DB00AAC08220021200000F0F7FE18220F
:10047000002104A800F0F2FE3A4B59698020800266
:10048000014359615A6902400392039A59698020D5
:100490000003014359615A6902400292029A5A6963
:1004A0008021C9020A435A615B690B400193019B99
:1004B0002D4F80235B009946BB620133FF33984682
:1004C000BB622A4A93680F218B4393609025ED0508
:1004D000EB6803229343EB602B6893432B60012668
:1004E0000A9626716671A671200000F05DFD022358
:1004F000049300240594089404A9280000F0BAFD90
:10050000042304930594089404A9280000F0B2FD84
:10051000082304930594089404A9280000F0AAFD78
:10052000102304930594089404A9280000F0A2FD68
:100530004B460493059606940794089404A9380042
:1005400000F098FD4346049305960694079408949A
:1005500004A9380000F08EFD0DB00CBC9046994601
:10056000F0BDC046001002400008004800000140F5
:10057000F0B591B01C22002109A800F06FFE1822EE
:10058000002103A800F06AFE284C62698021C9029C
:100590000A43626163690B400293029B4023039309
:1005A00002260496032705970125069507950895C9
:1005B00003A91F4800F05EFD80230393049605976E
:1005C00006950795089503A9194800F053FDE269BF
:1005D000802189030A43E261E3690B400193019B97
:1005E000144CE368144A1340E3602368134A134031
:1005F00023602368124A1340236000230993114AA1
:100600000A920B930C930D930E930F9309A920005C
:1006100000F084FD626880239B0413436360E368F9
:10062000094A1340E36011B0F0BDC046001002401B
:100630000004004800540040FF7FFFFFFFFFF7FF6A
:10064000FFFFFDFF0E09002001F8FFFF70B5050058
:100650000C0003690B40994201D0002070BDFFF7E8
:10066000F3FE2B699C4360426041C0B2F6E7000094
:1006700010B5284A136801218B430B431360254BA7
:100680001B68DB07FBD5244A136801210B43136069
:10069000214B1B689B07FBD51F4B1A68F8218A4327
:1006A00078390A431A605A681C491140A022920303
:1006B0000A435A60DA6A0F218A43DA621968802293
:1006C00052040A431A60144B1B689B01FBD5124B62
:1006D0005A68F0218A435A605A6811490A405A60A0
:1006E0005A6803218A4301390A435A600A4B5A68FF
:1006F0000C231340082BF9D10A4C200000F04AFDCE
:10070000200000F057FD044A136B10218B43136344
:1007100010BDC0460020024000100240FFFFC2FF93
:10072000FFF8FFFF006CDC0230B5434CA544434B9F
:100730009A69012422439A619A6922400192019A9E
:10074000DA69802149050A43DA61DB690B400093CD
:10075000009BFFF78DFFFFF77FFEFFF709FF00F01B
:100760003FFA374B374A1A6073AAC8239B00D4500C
:10077000354800F00DFC00F017FA002402E0FFF706
:1007800063FE0134092CFADD2022402173A800F019
:1007900063F802AC0EAB06C806C301230393200026
:1007A00000F084F9E0235B000022E254002173A8EA
:1007B00000F052F8010002A800F0F4F800F0F4F99B
:1007C00000252AE090300421C005FFF73FFF0028F4
:1007D00001D0032529E090300821C005FFF736FF3E
:1007E000002801D0022520E090301021C005FFF73D
:1007F0002DFF002819D0012517E0FFF725FE013451
:10080000092CFADD0022002173A800F025F8010070
:1008100002A800F0C7F800F0C7F990200221C00537
:10082000FFF714FF0028CDD00025290002A800F012
:100830002DF80024E4E7C0460CFBFFFF0010024047
:1008400068080020C10C00089C1400087047FEE7EF
:10085000704770477047704710B5C8239B00C35856
:10086000094CA34206DD01604260C8239B000022C0
:10087000C25010BDDC00215004196260591CC8220E
:10088000920081502000F4E7E7030000E0235B00C2
:10089000C35C002B05D1012903D0C133FF33C15400
:1008A0007047012B09D0022B0DD0032BF8D1022960
:1008B000F6D0BE33FF33C154F2E70029F3D0C03382
:1008C000FF33C154ECE70329EFD0BF33FF33C154EA
:1008D000E6E770B50500002408E0A31DDB00EA1878
:1008E0001179E85CFF2200F0C9F901346B68A3427A
:1008F000F3DC70BD70B501240AE0094BE318DB009E
:10090000C318E50045191E682E605B686B600134F2
:100910008C42F2DB136803605368436070BDC046CD
:10092000FFFFFF1F70B501240AE0094BE318DB004D
:10093000C318E50045191E682E605B686B600134C2
:100940004B1CA342F1DC136803605368436070BD25
:10095000FFFFFF1F70B50500002407E00134E3002E
:10096000EA181179E85C7D2200F088F92B68A3422F
:10097000F4DC70BD70B505000C0000F0BDFC642116
:10098000FFF732FD0E0000F0B7FC6421FFF72CFDED
:10099000631CDB005E51EB1859602800FFF7DAFF9B
:1009A00070BD000070B50400E0235B00C35C002B49
:1009B0000ED1036B0B60436B01334B600E687F2ECF
:1009C0001ED84A68002A1BDB3F2A19DC002521E0DB
:1009D000022B09D0032B0DD0012BEFD1036B0B6041
:1009E000436B013B4B60E9E7036B013B0B60436BDF
:1009F0004B60E3E7036B01330B60436B4B60DDE758
:100A0000002000F0C7F8284800F0C2FA00F0CCF847
:100A100070BD01352368AB421BDD6B1CDB001B592D
:100A20009E42F6D16B1CDB00E3185B689A42F0D162
:100A3000200030300A006168FFF774FF63680133FB
:100A400063602000FFF745FF29002000FFF792FFB9
:100A5000DEE7002300E0013365689D4213DD981D49
:100A6000C00000598642F6D1981DC0002018406889
:100A70008242F0D1002000F08DF80B4800F088FA97
:100A800000F092F8C4E7200030300A002900FFF798
:100A900031FF002000F07EF82000FFF71AFF200051
:100AA000FFF758FFB4E7C046A814000870B5060069
:100AB0000523036000240EE000F01EFC6421FFF714
:100AC00093FC0134E500A95100F016FC6421FFF706
:100AD0008BFC751969603368A342EDDC3000FFF7C9
:100AE00039FF70BD830018180918034B5B5C134174
:100AF000012018407047C046B41400080C494B68E8
:100B00000C4A1A400C4B13434B60094B9B699B07E3
:100B1000FBD5074B00229A62054B9B699B07FBD5CF
:100B2000034B9862024B9B695B06FBD40020704725
:100B300000540040008000FC7820028230B54A1C3E
:100B4000114D6B68114C23401404114A2243134386
:100B50006B600D4B9B699B07FBD50B4B40229A6248
:100B6000002208E0084B9B699B07FBD5845C064B81
:100B70009C620132D2B28A42F4D3034B9B695B067A
:100B8000FBD4002030BDC04600540040008000FC73
:100B90007820008210B501008022D200014800F0C8
:100BA0005DFB10BD6404002010B5002412E020009D
:100BB0005038C0B2FFF7A2FF0020FFF79FFF1020C0
:100BC000FFF79CFFE001054BC0188021FFF7B6FF3F
:100BD0000134E4B2072CEAD910BDC04664040020F9
:100BE00010B5254B00E013005A1E002BFBD1AE20A0
:100BF000FFF784FF2020FFF781FF1020FFF77EFF23
:100C0000C820FFF77BFF4020FFF778FF8120FFF728
:100C100075FFFF20FFF772FFA120FFF76FFFA620EF
:100C2000FFF76CFFA820FFF769FF3F20FFF766FF83
:100C3000A420FFF763FFD320FFF760FF0020FFF73A
:100C40005DFFD520FFF75AFFF020FFF757FFDA20AE
:100C5000FFF754FF1220FFF751FF8D20FFF74EFFE3
:100C60001420FFF74BFFAF20FFF748FF0020FFF7EE
:100C700091FFFFF799FF10BD80841E0043B2002B47
:100C80000EDB3F290CD8002A0BD1CB08DB0118184A
:100C90000723194001228A4008490B5C93430B54F7
:100CA0007047CB08DB0118180723194001228A403E
:100CB00002490B5C13430B54F2E7C0466404002066
:100CC000F8B504000A2803D00D2806D0002627E036
:100CD000194A1378013313702CE0184B00221A7054
:100CE00028E0174F320029002000BB689847020017
:100CF0003B79797902311048007841437118C9B2C3
:100D000001330E4800784343EB18D8B2FFF7B6FF23
:100D10000135EDB20A4B1B79AB42E2D80136F6B28F
:100D2000074B5B79B34201D90025F3E7034A1378F7
:100D300001331370F8BDC046610400206004002038
:100D40000400002010B504000A2808D0094B1B68D5
:100D5000002B08D0591C074A11601C7010BD0D20D3
:100D6000FFF7F0FFF2E7044B1B68002BF6D02000E2
:100D70009847F3E7640800206808002010B50400D5
:100D800002E00134FFF7DEFF20780028F9D110BD22
:100D9000F0B5DE4657464E464546E0B589B0824638
:100DA000019102E0FFF7CEFFA24653465C1C187883
:100DB000002800D1E3E02528F4D19A1C5E78302E7B
:100DC00005D02D2E08D000239B46002410E0DA1C0D
:100DD0009E7801239B46F8E7DA1C9E7802239B4607
:100DE000F3E7A3001B195C003419303C167801327C
:100DF0003300303BDBB2092BF3D96C2E03D04C2EE1
:100E000001D0924606E00423594619438B46531CF1
:100E10009A461678002E00D1B1E0602E0BD9320030
:100E2000203AD2B21300423BD9B2162934D88B00F3
:100E30005649CB589F463200F4E7019B1A1D019298
:100E40001F68002500E001357B5D002BFBD103E02E
:100E50002020FFF777FF35005B469B0703D46E1C0D
:100E6000A542F5D335003800FFF788FF03E02020C6
:100E7000FFF768FF35006E1CA542F8D395E7019B8C
:100E80001A1D01921878FFF75DFF8EE70A23009381
:100E90000BE01023009308E03000FFF753FF84E7D6
:100EA0000223009301E0082300935B465B0709D50A
:100EB000019B191D01911F68442A0FD0380000239F
:100EC000994621E0442A04D0019B191D01911F6815
:100ED000F2E7019B191D01911F68EDE7002FEDDA84
:100EE0007F4210235A461A439346E7E727214D19BC
:100EF000EDB24B465F1C303502AB4A469D5400288C
:100F000011D0172F0FD8B94600990700FFF782F9C3
:100F1000CDB200993800FFF7F7F8092DE9D9782EFE
:100F2000E4D00721E3E75B46DB0604D502AB2D22C4
:100F3000DA554F4602375B46DB0702D530253E00C7
:100F400005E02025FBE72800FFF7FCFE46465B4650
:100F50009B0704D4731C9846A642F4D31E00013F9D
:100F600002ABD85DFFF7EEFE002FF8D103E02020A2
:100F7000FFF7E8FE2E00751CA642F8D315E709B06E
:100F80003CBC90469946A246AB46F0BDB01900085D
:100F90000FB400B583B004A901C90191FFF7F8FEB1
:100FA00003B008BC04B0184710B50379002B51D02A
:100FB0000368002B5AD04279012A19D0002A03D0A5
:100FC000022A1FD0012308E0294A51689943516041
:100FD000136801680B43136000238279002A43D011
:100FE000022A23D0032A2BD0012A15D001233BE06B
:100FF0001F4A116899431160536801680B4353609D
:101000000023EAE71A4A11680B431360536801682A
:101010000B4353600023E0E7154AD1680468A143FD
:10102000D16001689068014391601DE0104A9168A9
:101030000468A14391600168D0680143D16013E066
:101040000B4A91680468214391600168D0680143AC
:10105000D16009E0064B1A6801688A431A6001688A
:101060005A688A435A600023180010BD0023FBE72A
:1010700000040140F0B5002214E0C6681C005C4387
:1010800065002D19ED432E400F6967433E43C6604E
:101090004E68022E24D003681D404B685C432C43ED
:1010A000046001320B681C00D44035D00124944008
:1010B0002340F6D04C68013C012CDED884681D002A
:1010C0005D436E007619B4438E6875432C4384608B
:1010D0000D684468AC43CE6875432C434460CCE74C
:1010E000FF2B0BD8076A26005E4373431E01F61AD6
:1010F000B7434E6973433B430362CCE7476A1B0A1D
:101100001E005E435E4373431E01F61AB7434E69E9
:1011100073433B434362BEE70020F0BD30B5026835
:101120000124A24302600368174A1340CA681202EE
:101130008D682A43134303604B68036103682343AC
:1011400003608368114A134083608368DB0ADB0213
:101150000A698C692243134383600B69002B04D016
:10116000826880231B02134383600368084A13408C
:101170000A68134303604B69426804490A401343F9
:101180004360002030BDC046FFE0FFFFFF7FFFFF50
:10119000FFFFCFFF10B5FA218900FEF7B5FF013838
:1011A000034B586000229A6005321A6010BDC04699
:1011B00010E000E0014B18607047C04600000020BE
:1011C0000D4885460D480E490E4A002302E0D458CA
:1011D000C4500433C4188C42F9D30B4A0B4C00237F
:1011E00001E013600432A242FBD3FFF734FB00F0AE
:1011F00011F8FFF799FAFEE7002000200000002018
:10120000440400201C1A0008440400209008002018
:10121000FEE7000070B50D4E0D4DAD1BAD1006D0B4
:101220000024A300F35801349847A542F9D100F0F7
:1012300029F9084E084DAD1BAD1006D00024A300BF
:10124000F35801349847A542F9D170BD101A00082F
:10125000101A0008101A0008181A0008F0B58307C1
:1012600046D0541E002A42D0CEB20200032502E02E
:101270001A00013C3BD3531C16702B42F8D1032CAF
:101280002DD9FF220A40150215432A0415430F2CBD
:1012900016D92700103F3F093E01B4461E001A0030
:1012A00010366644156055609560D5601032B242C4
:1012B000F8D10F2201373F01DB191440032C0ED95E
:1012C000261FB608B700BC461A001F1D674420C27F
:1012D000BA42FCD103220136B6009B191440002CFF
:1012E00005D0C9B21C19197001339C42FBD1F0BD65
:1012F00014000300C3E7C046094B10B51C68094A37
:10130000A83420686168084BFFF774F801220023B5
:1013100080185941206061604800400810BDC046F7
:10132000100000202D7F954C2DF45158034B10B523
:10133000002B02D0024800F005F810BD00000000AC
:101340005513000810B5010000230022002000F012
:101350001FF810BD70B5094B094CE41AA41009D050
:10136000084AA518AD00ED182B68013C9847043DCC
:10137000002CF9D100F08CF870BDC046181A000896
:101380001C1A0008FFFFFF3F7047C0467047C04669
:10139000F0B54E464546DE465746E0B5364D83B07D
:1013A0000600286898460F009146FFF7EDFF334B83
:1013B0001C68A4235B00E058002852D043681F2B10
:1013C00013DC5A1C0192002E28D1019A02339B0093
:1013D00042601F502868FFF7D9FF002003B03CBCD3
:1013E00090469946A246AB46F0BD254B002B3DD01A
:1013F000C820400000E000BF002837D0A42200230E
:101400005200A15843600160A05040328350043222
:101410008350013301930023002ED6D09A009246C8
:1014200082444A46882154466250C4225200914662
:1014300081444A468739994012688B460A4394464C
:101440004A4661461160842241465200A150022E54
:10145000BBD102005C468D32FF3211680C43146030
:10146000B3E720004D30FF30E050A7E72868FFF7D2
:101470008DFF01204042B1E7400400200C1A000813
:1014800000000000F8B5C046F8BC08BC9E46704796
:0C149000F8B5C046F8BC08BC9E4670478A
:10149C00534E414B452047414D45000047414D457A
:1014AC00204F56455200000000000000003E5B4FEC
:1014BC005B3E3E6B4F6B3E1C3E7C3E1C183C7E3CA8
:1014CC00181C577D571C1C5E7F5E1C00183C1800B6
:1014DC00FFE7C3E7FF0018241800FFE7DBE7FF3046
:1014EC00483A060E2629792926407F050507407FB4
:1014FC0005253F5A3CE73C5A7F3E1C1C08081C1C27
:10150C003E7F14227F22145F5F005F5F06097F011C
:10151C007F006689956A606060606094A2FFA29407
:10152C0008047E040810207E201008082A1C0808D5
:10153C001C2A08081E101010100C1E0C1E0C303823
:10154C003E3830060E3E0E06000000000000005F24
:10155C0000000007000700147F147F14242A7F2A40
:10156C001223130864623649562050000807030002
:10157C00001C2241000041221C002A1C7F1C2A084E
:10158C00083E0808008070300008080808080000B1
:10159C0060600020100804023E5149453E00427F25
:1015AC00400072494949462141494D331814127F74
:1015BC001027454545393C4A494931412111090714
:1015CC003649494936464949291E00001400000095
:1015DC004034000000081422411414141414004167
:1015EC0022140802015909063E415D594E7C121124
:1015FC00127C7F494949363E414141227F4141415C
:10160C003E7F494949417F090909013E41415173D6
:10161C007F0808087F00417F41002040413F017F47
:10162C00081422417F404040407F021C027F7F040F
:10163C0008107F3E4141413E7F090909063E415158
:10164C00215E7F09192946264949493203017F0148
:10165C00033F4040403F1F2040201F3F4038403F49
:10166C00631408146303047804036159494D43005F
:10167C007F4141410204081020004141417F040296
:10168C00010204404040404000030708002054542D
:10169C0078407F284444383844444428384444280B
:1016AC007F385454541800087E090218A4A49C785E
:1016BC007F0804047800447D40002040403D007FBA
:1016CC001028440000417F40007C047804787C089A
:1016DC000404783844444438FC182424181824246E
:1016EC0018FC7C08040408485454542404043F4453
:1016FC00243C4040207C1C2040201C3C4030403C82
:10170C0044281028444C9090907C4464544C4400E1
:10171C000836410000007700000041360800020145
:10172C000204023C2623263C1EA1A161123A404031
:10173C00207A3854545559215555794121545478AF
:10174C0041215554784020545579400C1E52721248
:10175C0039555555593954545459395554545800D0
:10176C0000457C410002457D420001457C40F0294A
:10177C002429F0F0282528F07C5455450020545499
:10178C007C547C0A097F49324949493232484848DD
:10179C0032324A4848303A4141217A3A4240207824
:1017AC00009DA0A07D39444444393D4040403D3C1F
:1017BC0024FF2424487E4943662B2FFC2F2BFF0942
:1017CC0029F620C0887E0903205454794100004436
:1017DC007D413048484A32384040227A007A0A0A21
:1017EC00727D0D19317D2629292F28262929292694
:1017FC0030484D4020380808080808080808382FD9
:10180C0010C8ACBA2F102834FA00007B0000081462
:10181C002A142222142A1408AA005500AAAA55AA8E
:10182C0055AA000000FF00101010FF00141414FF44
:10183C00001010FF00FF1010F010F0141414FC0036
:10184C001414F700FF0000FF00FF1414F404FC1440
:10185C001417101F10101F101F1414141F00101039
:10186C0010F0000000001F101010101F10101010AE
:10187C00F010000000FF101010101010101010FFCE
:10188C0010000000FF140000FF00FF00001F1017E5
:10189C000000FC04F414141710171414F404F400CE
:1018AC0000FF00F714141414141414F700F7141494
:1018BC0014171410101F101F141414F4141010F01B
:1018CC0010F000001F101F0000001F14000000FC8F
:1018DC00140000F010F01010FF10FF141414FF147B
:1018EC001010101F00000000F010FFFFFFFFFFF0B2
:1018FC00F0F0F0F0FFFFFF0000000000FFFF0F0F03
:10190C000F0F0F38444438447C2A2A3E147E0202BE
:10191C000606027E027E0263554941633844443C0C
:10192C0004407E201E2006027E020299A5E7A5999E
:10193C001C2A492A1C4C7201724C304A4D4D3030D5
:10194C0048784830BC625A463D3E494949007E01C0
:10195C0001017E2A2A2A2A2A44445F444440514ADF
:10196C00444040444A51400000FF0103E080FF0026
:10197C000008086B6B083612362436060F090F0662
:10198C00000018180000001010003040FF0101008A
:10199C001F01011E00191D1712003C3C3C3C0000AD
:1019AC0000000000A00E00087E0E00088C0E00083F
:1019BC00980E0008980E0008980E0008980E000863
:1019CC00980E0008980E0008980E0008980E000853
:1019DC00980E0008980E0008A60E0008980E000835
:1019EC00980E0008980E00083A0E0008980E000891
:1019FC008C0E0008980E0008980E0008920E000835
:041A0C00180000209E
:081A10002D130008E900000895
:041A1800C100000801
:101A1C0000127A00B414000805070000E50A00085B
:101A2C00180000200000000000000000040300204B
:101A3C006C030020D4030020000000000000000014
:101A4C00000000000000000000000000000000008A
:101A5C00000000000000000000000000000000007A
:101A6C00000000000000000000000000000000006A
:101A7C00000000000000000000000000000000005A
:101A8C00000000000000000000000000000000004A
:101A9C00000000000000000000000000000000003A
:101AAC00000000000000000000000000000000002A
:101ABC00000000000000000000000000000000001A
:101ACC00000000000000000000000000000000000A
:101ADC0001000000000000000E33CDAB34126DE6A7
:101AEC00ECDE05000B000000000000000000000010
:101AFC0000000000000000000000000000000000DA
:101B0C0000000000000000000000000000000000C9
:101B1C0000000000000000000000000000000000B9
:101B2C0000000000000000000000000000000000A9
:041E5C006C080020EE
:04000005080011C11D
:00000001FF
