:020000040800F2
:100000000020002075140008E5070008E707000835
:1000100000000000000000000000000000000000E0
:10002000000000000000000000000000E9070008D8
:100030000000000000000000EB070008ED070008CA
:10004000C5140008C5140008C5140008C51400082C
:10005000C5140008C5140008C5140008C51400081C
:10006000C5140008C5140008C5140008C51400080C
:10007000C5140008C5140008C5140008C5140008FC
:10008000C5140008C514000800000000C5140008CD
:10009000C5140008C5140008C5140008C5140008DC
:1000A000C5140008C5140008C5140008C5140008CC
:1000B000C514000800000000C5140008000000007E
:1000C00010B5064C2378002B07D1054B002B02D02E
:1000D000044800E000BF0123237010BD4408002045
:1000E00000000000B8300008044B10B5002B03D00E
:1000F0000349044800E000BF10BDC04600000000F6
:1001000048080020B8300008002243088B4274D30E
:1001100003098B425FD3030A8B4244D3030B8B4208
:1001200028D3030C8B420DD3FF22090212BA030C11
:100130008B4202D31212090265D0030B8B4219D3F2
:1001400000E0090AC30B8B4201D3CB03C01A524112
:10015000830B8B4201D38B03C01A5241430B8B425A
:1001600001D34B03C01A5241030B8B4201D30B0343
:10017000C01A5241C30A8B4201D3CB02C01A52416A
:10018000830A8B4201D38B02C01A5241430A8B422D
:1001900001D34B02C01A5241030A8B4201D30B0216
:1001A000C01A5241CDD2C3098B4201D3CB01C01A30
:1001B000524183098B4201D38B01C01A524143093A
:1001C0008B4201D34B01C01A524103098B4201D328
:1001D0000B01C01A5241C3088B4201D3CB00C01A95
:1001E000524183088B4201D38B00C01A524143080D
:1001F0008B4201D34B00C01A5241411A00D2014632
:10020000524110467047FFE701B5002000F0F0F8BA
:1002100002BDC0460029F7D076E7704703460B437E
:100220007FD4002243088B4274D303098B425FD3EF
:10023000030A8B4244D3030B8B4228D3030C8B421B
:100240000DD3FF22090212BA030C8B4202D3121201
:10025000090265D0030B8B4219D300E0090AC30BD6
:100260008B4201D3CB03C01A5241830B8B4201D383
:100270008B03C01A5241430B8B4201D34B03C01A6C
:100280005241030B8B4201D30B03C01A5241C30AE4
:100290008B4201D3CB02C01A5241830A8B4201D355
:1002A0008B02C01A5241430A8B4201D34B02C01A3F
:1002B0005241030A8B4201D30B02C01A5241CDD2E4
:1002C000C3098B4201D3CB01C01A524183098B422F
:1002D00001D38B01C01A524143098B4201D34B0118
:1002E000C01A524103098B4201D30B01C01A52417B
:1002F000C3088B4201D3CB00C01A524183088B4202
:1003000001D38B00C01A524143088B4201D34B00EA
:10031000C01A5241411A00D201465241104670475C
:100320005DE0CA0F00D04942031000D34042534061
:1003300000229C4603098B422DD3030A8B4212D321
:10034000FC22890112BA030A8B420CD38901921153
:100350008B4208D3890192118B4204D389013AD090
:10036000921100E08909C3098B4201D3CB01C01A65
:10037000524183098B4201D38B01C01A5241430978
:100380008B4201D34B01C01A524103098B4201D366
:100390000B01C01A5241C3088B4201D3CB00C01AD3
:1003A000524183088B4201D38B00C01A5241D9D2EB
:1003B00043088B4201D34B00C01A5241411A00D26C
:1003C0000146634652415B10104601D34042002B68
:1003D00000D54942704763465B1000D3404201B5E7
:1003E000002000F005F802BD0029F8D016E770479C
:1003F0007047C046F0B5CE46474615042D0C2E007A
:1004000080B50704140C3F0C9946030C7E435D43F2
:10041000674363437F19340CE4199C46A54203D912
:1004200080235B029846C4444B4643435143250C0A
:1004300036046544360C2404A4195B1959182000AD
:100440000CBC90469946F0BD80B5024E013E002E90
:10045000FCD180BD60EA0000F0B5CE46474680B5CD
:100460008DB00AAC08220021200001F001FC182206
:10047000002104A801F0FCFB3A4B5969802080025E
:10048000014359615A6902400392039A59698020D5
:100490000003014359615A6902400292029A5A6963
:1004A0008021C9020A435A615B690B400193019B99
:1004B0002D4F80235B009946BB620133FF33984682
:1004C000BB622A4A93680F218B4393609025ED0508
:1004D000EB6803229343EB602B6893432B60012668
:1004E0000A9626716671A671200000F0D9F90223E0
:1004F000049300240594089404A9280000F036FA17
:10050000042304930594089404A9280000F02EFA0B
:10051000082304930594089404A9280000F026FAFF
:10052000102304930594089404A9280000F01EFAEF
:100530004B460493059606940794089404A9380042
:1005400000F014FA43460493059606940794089421
:1005500004A9380000F00AFA0DB00CBC9046994688
:10056000F0BDC046001002400008004800000140F5
:10057000F0B591B01C22002109A801F079FB1822E6
:10058000002103A801F074FB284C62698021C90294
:100590000A43626163690B400293029B4023039309
:1005A00002260496032705970125069507950895C9
:1005B00003A91F4800F0DAF98023039304960597F6
:1005C00006950795089503A9194800F0CFF9E26947
:1005D000802189030A43E261E3690B400193019B97
:1005E000144CE368144A1340E3602368134A134031
:1005F00023602368124A1340236000230993114AA1
:100600000A920B930C930D930E930F9309A920005C
:1006100000F000FA626880239B0413436360E36880
:10062000094A1340E36011B0F0BDC046001002401B
:100630000004004800540040FF7FFFFFFFFFF7FF6A
:10064000FFFFFDFF0E09002001F8FFFF70B5060057
:100650000D00002402E0FFF7F7FE013433692B425E
:10066000F9D1642C01DC002070BD0120FCE7000002
:1006700010B5284A136801218B430B431360254BA7
:100680001B68DB07FBD5244A136801210B43136069
:10069000214B1B689B07FBD51F4B1A68F8218A4327
:1006A00078390A431A605A681C491140A022920303
:1006B0000A435A60DA6A0F218A43DA621968802293
:1006C00052040A431A60144B1B689B01FBD5124B62
:1006D0005A68F0218A435A605A6811490A405A60A0
:1006E0005A6803218A4301390A435A600A4B5A68FF
:1006F0000C231340082BF9D10A4C200000F0C6F956
:10070000200000F0D3F9044A136B10218B431363CC
:1007100010BDC0460020024000100240FFFFC2FF93
:10072000FFF8FFFF006CDC0270B582B02A4B9969BC
:1007300001221143996199690A400192019ADA698B
:10074000802149050A43DA61DB690B400093009B75
:10075000FFF78EFFFFF780FEFFF70AFF00F0A4FC13
:100760001E4B1F4A1A6000F0D3F9050000F026FA6C
:10077000002622E090300221C005FFF767FF002825
:1007800001D0032621E090300321C005FFF75EFF72
:10079000002801D0022618E090300421C005FFF7A0
:1007A00055FF002811D001260FE0FFF74DFE013460
:1007B000092CFADD280000F001FA90200121C00583
:1007C000FFF744FF0028D5D000263100280000F0B4
:1007D000B8F90024ECE7C04600100240780C002075
:1007E0008D1100087047FEE7704770477047012081
:1007F000704710B500F0A8FE1623036001204042A8
:1008000010BD10B501214942FFF7F3FFFEE770B5B7
:100810000D001600002404E000E000BF2870013441
:100820000135B442F8DB300070BD70B5160000240D
:1008300005E04D1C087800E000BF01342900B442F7
:10084000F7DB300070BD000010B503000B4A1268E2
:10085000002A08D0094A1068C3186A46934206D88D
:10086000064A136010BD054A05491160F2E700F021
:100870006BFE0C23036001204042F3E76008002078
:10088000D80C002001204042704780239B014B6020
:10089000002070470120704700207047704700001B
:1008A00010B50379002B51D00368002B5AD0427940
:1008B000012A19D0002A03D0022A1FD0012308E000
:1008C000294A516899435160136801680B431360CA
:1008D00000238279002A43D0022A23D0032A2BD076
:1008E000012A15D001233BE01F4A1168994311608A
:1008F000536801680B4353600023EAE71A4A116802
:100900000B431360536801680B4353600023E0E717
:10091000154AD1680468A143D16001689068014319
:1009200091601DE0104A91680468A14391600168DC
:10093000D0680143D16013E00B4A916804682143F9
:1009400091600168D0680143D16009E0064B1A68E4
:1009500001688A431A6001685A688A435A60002312
:10096000180010BD0023FBE700040140F0B5002291
:1009700014E0C6681C005C4365002D19ED432E4051
:100980000F6967433E43C6604E68022E24D0036859
:100990001D404B685C432C43046001320B681C0013
:1009A000D44035D0012494402340F6D04C68013C1B
:1009B000012CDED884681D005D436E007619B443B7
:1009C0008E6875432C4384600D684468AC43CE68E0
:1009D00075432C434460CCE7FF2B0BD8076A2600F5
:1009E0005E4373431E01F61AB7434E6973433B439C
:1009F0000362CCE7476A1B0A1E005E435E437343F3
:100A00001E01F61AB7434E6973433B434362BEE788
:100A10000020F0BD30B502680124A24302600368E3
:100A2000174A1340CA6812028D682A4313430360B1
:100A30004B6803610368234303608368114A1340D2
:100A400083608368DB0ADB020A698C6922431343F3
:100A500083600B69002B04D0826880231B02134340
:100A600083600368084A13400A68134303604B69B4
:100A7000426804490A4013434360002030BDC04629
:100A8000FFE0FFFFFF7FFFFFFFFFCFFF10B5FA2161
:100A90008900FFF739FB0138034B586000229A6048
:100AA00005321A6010BDC04610E000E0014B18602E
:100AB0007047C0460000002010B50421012000F05E
:100AC0000BFD040000F08AF92060200010BD70B515
:100AD000040001F02BF96421FFF786FC0D0001F002
:100AE00025F96421FFF780FC280000F007F80300D7
:100AF000206819685A6800F0D3F970BD70B5050018
:100B00000C000821012000F0E7FC0560446070BD86
:100B100010B50C21012000F0DFFC0400002303725B
:100B200000F05CF9606020214020FFF7E7FF0168DA
:100B30004268606800F0B4F9FFF7BEFF2060200053
:100B400010BD037A002B03D1012901D00172704737
:100B5000012B07D0022B09D0032BF8D10229F6D0A4
:100B60000172F4E70029F5D00172F0E70329F3D010
:100B70000172ECE770B50500002408E01B68E20094
:100B80009B1819791878FF2200F0DEFA01346B689F
:100B90001B685A68A242F1DC002408E01B68E200EE
:100BA0009B1819791878FF2200F0CEFA01346B688F
:100BB0005B685A68A242F1DC70BD0000F0B583B0FA
:100BC000040000210020FFF799FF0500237A002B85
:100BD0000FD0022B19D0032B23D0012B2DD0296845
:100BE0007F2936D86E68002E33DB3F2E31DC0022A1
:100BF00035E0606800F002F903682B60606800F07F
:100C0000FDF8436801336B60E9E7606800F0F6F8CF
:100C10000368013B2B60606800F0F0F843686B608C
:100C2000DDE7606800F0EAF8036801332B60606874
:100C300000F0E4F843686B60D1E7606800F0DEF82C
:100C400003682B60606800F0D9F84368013B6B6073
:100C5000C5E7394800F002FC03B0F0BD013223685B
:100C6000186803685F68974214DD1B68D0001B1882
:100C700018688142F2D15B689E42EFD129686A68A8
:100C8000606800F00DF92000FFF774FF2068FFF79F
:100C90001EFFE1E7002200E0013243685F689742EF
:100CA00014DD1B68D700DB191F68B942F4D15B68FB
:100CB0009E42F1D129686A68606800F0F1F820006E
:100CC000FFF758FF2068FFF702FFC5E7002200E0AA
:100CD0000132606803685F6897420CDD1B68D000D2
:100CE0001B1818688142F3D15B689E42F0D112480C
:100CF00000F0B4FBB0E7002200E0013243685F6817
:100D000097420CDD1B68D700DB191F68B942F4D18C
:100D10005B689E42F1D1084800F0A0FB9CE729687F
:100D20006A6800F0BDF86168684600F073F820005A
:100D3000FFF720FF90E7C046D030000810B50C2028
:100D400000F09EFC04003223836000234360C8202F
:100D5000400000F095FC2060200010BD10B582B06E
:100D6000040000910192816843688B420AD0236895
:100D70006268511C6160D2009B186A4603CA03C3B3
:100D800002B010BD4B1E5A425341C9184B0083603C
:100D90000901006800F0E4FF2060E8E770B54A68E8
:100DA000002A0BDD0A4BD318DB000C68A446634411
:100DB000040060CB60C4013A4A6070BD054B1B68FB
:100DC000DB680F220121044800F01EFC00F07CFBD0
:100DD000FFFFFF1F04000020E830000810B50C20C2
:100DE00000F04EFC0400FFF7A9FF2060FFF7A6FF0C
:100DF00060600023A360200010BD0000026813683B
:100E00005068034A94466044C00018187047C046B2
:100E1000FFFFFF1FF0B585B001900C0009684B681B
:100E2000002B07DDA368013BA360FFF7B7FF019824
:100E300005B0F0BDFFF782FF050063685F6800261C
:100E400009E0616802A8FFF7A9FF0299039A280048
:100E5000FFF784FF01367B08B342F2D807E002A80F
:100E6000FFF79CFF0299039A2068FFF777FF6168FC
:100E70004B68002BF3D108E0290002A8FFF78EFF92
:100E80000299039A6068FFF769FF6B68002BF3D142
:100E9000A368013BA36021680198FFF77FFFC6E7C5
:100EA00010B582B004004068FFF758FFA368013313
:100EB000A36002B010BD000030B583B0374A51695D
:100EC0008020C00201435161536903400193019B9B
:100ED000334B1968334801408024A4010C431C6043
:100EE00059684024A143214359601C6A2E4D254076
:100EF000802464042C431C6299680840C021890145
:100F000001439960196829480140802424020C4358
:100F10001C6059688024A14321435960196A090162
:100F20000909802464052143196299680840C02199
:100F3000090201439960136B10218B430B43136328
:100F40001B4B19680124A1431960D16980208003DB
:100F50000143D161D26902400092009A196880224F
:100F600052010A431A60196812480840802149005A
:100F700001431960104A1A611A68802189021143DD
:100F8000196059680D4A1140596019680C4A11409E
:100F900019601A6822431A6003B030BD0010024085
:100FA00000040048FFCFFFFFFFFFFFF0FF3FFFFF00
:100FB00000540040FFF0FFFF09033350FFF7FFFF2D
:100FC000FFFFCFFF0C494B680C4A1A400C4B1343F0
:100FD0004B60094B9B699B07FBD5074B00229A622C
:100FE000054B9B699B07FBD5034B9862024B9B69A2
:100FF0005B06FBD40020704700540040008000FCDA
:101000007820028230B54A1C114D6B68114C234088
:101010001404114A224313436B600D4B9B699B07D9
:10102000FBD50B4B40229A62002208E0084B9B69DB
:101030009B07FBD5845C064B9C620132D2B28A428C
:10104000F4D3034B9B695B06FBD4002030BDC04644
:1010500000540040008000FC7820008210B50100A0
:101060008022D200014800F003FE10BD7408002069
:1010700010B5002412E020005038C0B2FFF7A2FFE4
:101080000020FFF79FFF1020FFF79CFFE001054BBA
:10109000C0188021FFF7B6FF0134E4B2072CEAD96B
:1010A00010BDC0467408002010B5FFF705FF254BA2
:1010B00000E013005A1E002BFBD1AE20FFF782FF89
:1010C0002020FFF77FFF1020FFF77CFFC820FFF7ED
:1010D00079FF4020FFF776FF8120FFF773FFFF20A5
:1010E000FFF770FFA120FFF76DFFA620FFF76AFF53
:1010F000A820FFF767FF3F20FFF764FFA420FFF75A
:1011000061FFD320FFF75EFF0020FFF75BFFD520D4
:10111000FFF758FFF020FFF755FFDA20FFF752FFE7
:101120001220FFF74FFF8D20FFF74CFF1420FFF731
:1011300049FFAF20FFF746FF0020FFF78FFFFFF7C3
:1011400097FF10BD80841E0043B2002B0EDB3F29A9
:101150000CD8002A0BD1CB08DB0118180723194043
:1011600001228A4008490B5C93430B547047CB081B
:10117000DB0118180723194001228A4002490B5C41
:1011800013430B54F2E7C04674080020F8B504007E
:101190000A2803D00D2806D0002627E0194A137824
:1011A000013313702CE0184B00221A7028E0174FFF
:1011B000320029002000BB68984702003B7979790A
:1011C00002311048007841437118C9B201330E480A
:1011D00000784343EB18D8B2FFF7B6FF0135EDB204
:1011E0000A4B1B79AB42E2D80136F6B2074B5B796A
:1011F000B34201D90025F3E7034A13780133137092
:10120000F8BDC0466508002064080020680800207A
:1012100010B504000A2808D0094B1B68002B08D021
:10122000591C074A11601C7010BD0D20FFF7F0FF1C
:10123000F2E7044B1B68002BF6D020009847F3E739
:10124000740C0020780C002010B5040002E001347A
:10125000FFF7DEFF20780028F9D110BDF0B5DE469B
:1012600057464E464546E0B589B08246019102E0B8
:10127000FFF7CEFFA24653465C1C1878002800D129
:10128000E3E02528F4D19A1C5E78302E05D02D2E6F
:1012900008D000239B46002410E0DA1C9E7801232E
:1012A0009B46F8E7DA1C9E7802239B46F3E7A300EF
:1012B0001B195C003419303C167801323300303B86
:1012C000DBB2092BF3D96C2E03D04C2E01D0924601
:1012D00006E00423594619438B46531C9A46167858
:1012E000002E00D1B1E0602E0BD93200203AD2B2EC
:1012F0001300423BD9B2162934D88B005649CB583B
:101300009F463200F4E7019B1A1D01921F680025D9
:1013100000E001357B5D002BFBD103E02020FFF7CF
:1013200077FF35005B469B0703D46E1CA542F5D3BF
:1013300035003800FFF788FF03E02020FFF768FF43
:1013400035006E1CA542F8D395E7019B1A1D01924A
:101350001878FFF75DFF8EE70A2300930BE0102358
:10136000009308E03000FFF753FF84E70223009367
:1013700001E0082300935B465B0709D5019B191D1B
:1013800001911F68442A0FD038000023994621E0BC
:10139000442A04D0019B191D01911F68F2E7019BAB
:1013A000191D01911F68EDE7002FEDDA7F42102330
:1013B0005A461A439346E7E727214D19EDB24B46AB
:1013C0005F1C303502AB4A469D54002811D0172FC0
:1013D0000FD8B94600990700FEF71CFFCDB200995F
:1013E0003800FEF791FE092DE9D9782EE4D00721C7
:1013F000E3E75B46DB0604D502AB2D22DA554F4608
:1014000002375B46DB0702D530253E0005E020258C
:10141000FBE72800FFF7FCFE46465B469B0704D42B
:10142000731C9846A642F4D31E00013F02ABD85D60
:10143000FFF7EEFE002FF8D103E02020FFF7E8FED3
:101440002E00751CA642F8D315E709B03CBC9046A7
:101450009946A246AB46F0BDF83000080FB400B57F
:1014600083B004A901C90191FFF7F8FE03B008BCDD
:1014700004B018470D4885460D480E490E4A002312
:1014800002E0D458C4500433C4188C42F9D30B4A38
:101490000B4C002301E013600432A242FBD3FFF7A0
:1014A000FDF900F0C1F8FFF73FF9FEE7002000204A
:1014B0000000002044080020643100084408002097
:1014C000D80C0020FEE7000010B5062000F06CFEEE
:1014D0000120FFF796F9C04610B5044B0A001B68BF
:1014E0000100180000F004F810BDC0460400002000
:1014F00010B5514300F0CEF8041E1CD00300083B89
:101500005A6803239A43043A242A16D80300132A5C
:101510000DD900210833016041601B2A07D9816081
:10152000C160242A0DD103000161183341610022FA
:101530001A605A609A60200010BD002100F098FBEC
:10154000F9E703001033F2E7014B18687047C04613
:1015500004000020F0B5C64600B51D00160086B098
:1015600001AB039301236E43071E90460C9C01912F
:1015700002960596049302D0836B002B2FD00C2388
:10158000E25E636E91B2DB0701D48B052AD580231E
:101590009B01194205D11343A381626E194B13407D
:1015A000636603AA2100380000F0F8FF636E00288C
:1015B00009D1DB0702D4A3899B051AD5280006B000
:1015C00004BC9046F0BDDB0702D4A3899B0514D56B
:1015D00005984146301AFEF797FD0500EEE700F04A
:1015E00049FECCE7A06D00F047F80C23E25E91B213
:1015F000CDE7A06D00F042F8E0E7A06D00F03EF806
:10160000E6E7C046FFDFFFFF10B50400054882B0E3
:101610000068009313000A002100FFF79BFF02B04F
:1016200010BDC0460400002070B50D4E0D4DAD1B21
:10163000AD1006D00024A300F35801349847A5420A
:10164000F9D101F039FD084E084DAD1BAD1006D0A3
:101650000024A300F35801349847A542F9D170BD86
:10166000583100085831000858310008603100082E
:101670007047C0467047C0467047C0467047C04676
:1016800010B5034B0100186800F004F810BDC04607
:1016900004000020F0B557464546DE464E46E0B50C
:1016A0000D000B3583B00700162D28D8102900D95E
:1016B000C1E000F02BFB102518230220CC4EF318BC
:1016C0001A005C68083A944200D15BE10323626827
:1016D0009A431300E268A168CA6091600122E3188E
:1016E000596838000A435A6000F018FB200008309F
:1016F00003B03CBC90469946A246AB46F0BD0723DA
:101700009D4300D597E0A94200D994E000F0FEFA8D
:10171000F823FF339D4200D859E1680A00D18EE0DA
:10172000042800D934E138239846A8098044393088
:10173000C100AF4E71180839CC68A14218D00323FC
:1017400062689A431300521B0F2A00DD18E1002A39
:10175000C0DA03239C4608E06246636893435A1B41
:101760000F2A00DD0CE1002AB4DAE468A142F3D1CB
:10177000320034690832944267D003236168994388
:101780008A460B00491B0F2900DD0DE172613261B1
:101790000029A3DA974A924500D94AE1DB08FF3ACB
:1017A0009910FF3A8A40DB0071689B190A439968D7
:1017B0007260E360A1609C60CC600121831099405D
:1017C000914248D80A4205D1032398434900043086
:1017D0000A42FBD003239846C3009946B144CC4645
:1017E00082466346DC68A44507D1F4E0002A00DBAA
:1017F00010E1E468A44500D1EDE0424663689343FC
:101800005A1B0F2AF2DD01208046611905436560ED
:10181000A068E5680836C560A8604046F160B16020
:1018200010434860CE608E603800E25000F076FAD7
:10183000200008305CE70C2300203B6058E7802143
:101840003F2389004020984673E701217268831086
:1018500099409142B6D90323B46862689A4390468E
:10186000AA4202D3531B0F2B7CDC634A634B934683
:101870001B681268EB18013200D13BE1604A9446C4
:1018800063441B0B1B0301930199380000F04CFCCF
:1018900003008146013300D1F9E04346E318834257
:1018A00000D9F2E0574A019992461268944652468E
:1018B00061441160834200D13EE15A461268013210
:1018C00000D155E14A46D31A5918534619600723E7
:1018D0004A46134000D123E1082189464A49D21AD9
:1018E0009144CB1A019A38004A441105090D5B1A3C
:1018F00019009B4600F018FC431C00D134E14B4614
:10190000C01A01235844184353461B685B4419000E
:10191000534619604B46B3605860B44212D04346F8
:101920000F2B00D81CE1072260680C3B9343063A5A
:10193000024005201A436260E218506090600F2B4D
:1019400000D933E1314B1A68914200D91960032361
:10195000B46862689A432E4B1868814200D89AE0B6
:10196000196098E001222900134311436519616051
:101970003800B5606B6000F0D1F920000830B7E6A0
:101980004046F5E6DC680230A34200D1F0E69DE671
:10199000142874D9542800D9AFE06E239846280B38
:1019A00080446F30C100C4E6012360191D436560A7
:1019B00070613061C26082601A0053460A4342601F
:1019C0003800E15000F0AAF92000083090E62B0022
:1019D000E808083372E608239B46073BDC449B4635
:1019E000DA4443465246134200D0FAE66DE0C04660
:1019F00030040020FF01000038080020AC0C00205B
:101A00000F1000007C0C002008100000A40C002027
:101A1000A80C00200122E318596838000A435A60D4
:101A2000E368A268D3609A6000F078F9200008307B
:101A30005EE65A0A042A39D9142A74D85B239846D8
:101A400090445C32D20008235B429C46B218944416
:101A500063469968032399468C4559D04B464A689A
:101A60009A43524502D989688C45F7D1CB68726890
:101A70009C466346A160E3609C60CC609DE65B236E
:101A8000984680445C30C10053E6B44274D00323CE
:101A9000B46862689A43531B954202D80F2B00DD4D
:101AA00060E7380000F03AF9002021E69A0938236F
:101AB000984690443932D200C5E74B461A68083B35
:101AC000013891469A4200D087E043460342F4D160
:101AD00073688B4373604900994200D9BBE60029C3
:101AE00004D1B8E6042294464900E2440B42F9D0FE
:101AF000504671E610330193C6E6AA235B00984274
:101B000024D8DD3B9846E80B80447830C10010E6CD
:101B1000434601229B109A4073681A437260A8E7FB
:101B200080235B01DEE6542A2FD81A0B6E239846D9
:101B300090446F32D20086E71A0500D0BDE601203E
:101B4000019BB268434403435360FBE6244B984235
:101B500026D87C239846A80C80447D30C100E8E557
:101B600001234A4653609CE7002301209B46CBE6B5
:101B70005B464A461A60AAE61A4A019992461268DA
:101B8000944652466144116097E6AA2149008A4270
:101B900014D8DA0B7723984690447832D20052E773
:101BA000FE217E2389007F209846C2E5210038006F
:101BB000083100F009FC53461968C3E608498A4217
:101BC00006D89A0C7C23984690447D32D2003AE79E
:101BD000FE227E239200984635E773687BE7C04675
:101BE000540500007C0C0020F0B50F2A37D90D00F9
:101BF00005430C000300AD0735D11500103D2D093C
:101C00002E013618103627681F6067685F60A76866
:101C10009F60E7681034DF601033B342F3D10F24C4
:101C200001352D01491914404519032C1DD90023F4
:101C3000CE58EE500433E61A032EF9D80323043CA1
:101C4000A4080134A4001A402D190919002A05D04E
:101C50000023CC5CEC5401339342FAD1F0BD050073
:101C6000002AF5D1FAE70500F2E72200F8E7C046BE
:101C7000F0B5830746D0541E002A42D0CEB20200EF
:101C8000032502E01A00013C3BD3531C16702B4283
:101C9000F8D1032C2DD9FF220A40150215432A043E
:101CA00015430F2C16D92700103F3F093E01B446BB
:101CB0001E001A0010366644156055609560D560A8
:101CC0001032B242F8D10F2201373F01DB19144024
:101CD000032C0ED9261FB608B700BC461A001F1DDC
:101CE000674420C2BA42FCD103220136B6009B19D8
:101CF0001440002C05D0C9B21C19197001339C4244
:101D0000FBD1F0BD14000300C3E7C04610B5024884
:101D1000FFF7B2FC10BDC046C00C002010B5024851
:101D2000FFF7ACFC10BDC046C00C0020094B10B53D
:101D30001C68094AA83420686168084BFEF75AFB02
:101D4000012200238018594120606160480040084A
:101D500010BDC046040000202D7F954C2DF4515835
:101D600010B5044B0A001B680100180000F004F8CD
:101D700010BDC04604000020F0B5DE46574645467B
:101D80004E46E0B5934685B007000D1E00D1A9E090
:101D90002E00083EFFF7BAFF736803221C0094432D
:101DA0005A460B32B146162A43D810229246009268
:101DB000D34543D8009A31198846944276DAD44AFA
:101DC0009168414500D1B6E04246506801210200C9
:101DD0008A439446C444624652680A4200D186E06F
:101DE000194230D059463800FFF754FC804600288D
:101DF0001BD0012372689A43B3180200083A934239
:101E000000D125E1221F242A00D931E129680300ED
:101E1000132A00D912E12A001960516859609268AA
:101E20009A602900380000F0CFFA3800FFF776FFFB
:101E300050E007218A4392460092B9D50C233B60BB
:101E40000023984646E03368F31A01935B680293D7
:101E50000323029A9A431300009AE11802919142D7
:101E6000C0DB0198844606008268C3686144D36081
:101E70009A60221F08368846242A00D9EFE0296894
:101E80003300132A09D981606B68C3601B2A00D90B
:101E900004E110300300A968083519606A68029CE3
:101EA0005A60AA6835009A60019B994653464A4693
:101EB000E01A012352681A400F282AD849462243C3
:101EC0004A60424652681343424653603800FFF767
:101ED00025FFA846404605B03CBC90469946A24620
:101EE000AB46F0BD1100FFF7D5FB8046F2E70322B9
:101EF00090439446009A02902018904269DB434632
:101F00004246B046DB6892688044D36004009A6021
:101F1000CCE7544622434C4649466260424651440F
:101F200018434860526808311343424638005360F2
:101F300000F04AFACAE7032250464968103091433C
:101F400009199446814200DB96E0DB0700D549E79A
:101F500062463368F31A01935B689343CA1802928E
:101F6000904200DD78E701988268C3688446D360B8
:101F70009A60082262449046221F242A00D9B7E0C2
:101F800029684346132A09D981606B68C3601B2AFC
:101F900000D9B2E00300A9681033083519606A68F7
:101FA0005A60AA689A600198594B020052449A609C
:101FB00011005246029B9A1A01231A434A60416853
:101FC00000910B4051460B4343603800FFF7A6FEDB
:101FD00080E7194200D005E762463368F31A01939F
:101FE0005B6803939343029AD1180A1900990292ED
:101FF0008A4200DA30E743464246DB68926801983D
:10200000D3609A608268C3680600D3609A60029BBE
:1020100084469846221F0836E044242A1FD829689F
:102020003300132A00D838E781606B68C3601B2A2D
:1020300034D80300A968103308352EE701606968B9
:1020400041601B2A35D82A0008330832A968E3E624
:102050000322B0465B689343E418A04426E72900B6
:10206000300000F07FFC019B3500029C99461DE783
:10207000290000F077FCD4E65346254AF318936014
:1020800052460124891A21435960736838001C4064
:1020900014437460FFF742FEA8461BE7A968019B42
:1020A0001961E9685961242A0ED02969183310355D
:1020B000F3E6A9688160E968C160242A0ED02A008D
:1020C000103310322969A7E62B69019A9361130036
:1020D00069692033D161A9691835DEE62A690100F2
:1020E00002612A006869183248611833A96993E6C9
:1020F0002900404600F036FC55E7A968019B1961AC
:10210000E9685961242A05D029691833103545E753
:10211000300400202B69019A936113006969203310
:10212000D161A969183539E7002370B5064C05005F
:1021300008002360FEF788FB431C00D070BD2368B5
:10214000002BFBD02B60F9E7D40C002070B5050004
:102150000C001F2922D8B7239B00C358002B0ED098
:102160008A009B181A68002A09D0012A10D0511C35
:1021700010D00021200019609047002070BD280079
:1021800000F030F822000100280000F017F8F5E711
:102190000020F3E7162303600120EFE71623036016
:1021A00001204042EAE7C04610B5034B0100186821
:1021B000FFF7CCFF10BDC04604000020002370B51F
:1021C000074C0500080011002360FEF712FB431CBA
:1021D00000D070BD2368002BFBD02B60F9E7C04610
:1021E000D40C002010B5FEF702FB10BD034B10B558
:1021F000002B02D0024800F005F810BD00000000DE
:10220000F522000810B5010000230022002000F094
:10221000C3FC10BD002310B504000360436083605D
:1022200081814366C2810361436183610822002189
:102230005C30FFF71DFD2000064BE4612362064B76
:1022400058306362054BA362054BE362FFF710FA57
:1022500010BDC046012A0008292A0008652A000886
:10226000912A000810B5024900F016FB10BDC046C7
:10227000B12C000870B50400144D2800FFF7FCF9DC
:10228000A36B002B1DD1124A0421E263B8229200F5
:10229000A350B92303229B00E2500833E218043B09
:1022A000E25060680022FFF7B5FF01220921A06813
:1022B000FFF7B0FF02221221E068FFF7ABFF012316
:1022C000A3632800FFF7DAF970BDC046BC0C0020FC
:1022D0006522000810B50248FFF7CEF910BDC046D0
:1022E000D00C002010B50248FFF7C8F910BDC04659
:1022F000D00C002070B5094B094CE41AA41009D089
:10230000084AA518AD00ED182B68013C9847043D1C
:10231000002CF9D100F0D6FE70BDC0466031000837
:1023200064310008FFFFFF3FF8B50C000600FFF71F
:10233000EDFC204FBB685D6803239D431E4B2C1BA7
:102340009C466444240B1D4B013C24039C4207DD46
:1023500000213000FFF7E8FEBB685B19984204D00B
:102360003000FFF7DBFC0020F8BD61423000FFF7D2
:10237000DBFE431C0DD00122BB682D1B15435D60A5
:102380000F4B30001A68141B1C60FFF7C7FC0120BC
:10239000EAE700213000FFF7C7FEBA68831A0F2B67
:1023A000DEDD08490968401A0549086001210B4330
:1023B0005360D5E730040020EF0F0000FF0F00004E
:1023C0007C0C002038080020F8B5CE4647460500B2
:1023D00080B50C1E55D0FFF799FC210008394F68D5
:1023E000012438000323A0430A1856689E43B146CF
:1023F000644EB368934229D04B465360D3189C4631
:102400003C4242D10F68C91B8B68C019984663468D
:102410005F6808239C46B4442740E0456AD04346A1
:10242000CC68DC60A360002F32D10124484404430F
:10243000A0469368544C0F18A34200D17FE0D268A5
:10244000DA60936043464B60386025E003004B44FC
:102450003C4206D10A68891A88689B18CA68C2601B
:10246000906001221A434A60484AB16012689A4259
:1024700004D8474B28001968FFF756FF2800FFF7DC
:102480004DFC0CBC90469946F8BD5F682740CCD007
:10249000012303434B6008503E4B98421AD9430A2C
:1024A000042B33D88209140039323834D200B218E0
:1024B000083A936803279A4239D05C68BC43844247
:1024C00033D99B689A42F8D1D368CB608A6099600F
:1024D000D160D3E7C008FF3B8210FF3B9340726896
:1024E000C000134373608619B368CE608B60B1601F
:1024F000D960C3E7002F41D1030090684B44D268F4
:102500001C43C26090604C60CB50B7E7142B07D9D6
:10251000542B1CD8020B14006F326E34D200C6E765
:102520001C005C335B34DA00C1E71A00CCE70123FE
:10253000A410A3407068034373601300C5E7D9601B
:102540009960CB608B6043464B60386096E7AA2267
:102550005200934205D8C20B140078327734D2006F
:10256000A5E70D4A934205D8820C14007D327C34D5
:10257000D2009CE7FE227E24920098E704434C6040
:1025800010607BE730040020380400203C08002065
:10259000AC0C0020FF01000054050000F0B54546DA
:1025A000DE4657464E46E0B5936883B000900D0076
:1025B0009046002B2DD08B891A0732D50A69002A44
:1025C0002FD0424616689A0737D56B6A00279A467D
:1025D000AD4B00249946E969002C16D023004C45E8
:1025E00000D9A94B3A000098D047002800DC8FE0C2
:1025F00043469B683F18241A181A4346986008D02F
:102600006B6AE9699A46002CE8D137687468083625
:10261000E2E7002003B03CBC90469946A246AB4698
:10262000F0BD2900009800F04DFA002800D028E104
:102630004246AB8916689A07C7D4DA0770D40022DD
:1026400091468022920000279346AC682868002FAC
:1026500053D05A46134200D1A8E0A246BC4200D94A
:10266000D7E09022D20013422ED02969441AA44602
:102670006869019442001218D00F8218781C521019
:1026800060449246904201D9824602005B0500D424
:10269000D0E011000098FEF7FDFF041E00D1EAE033
:1026A000019A2969FFF7A0FAAB89784A1340802282
:1026B0001343AB815246019B2C61E018BA463C00A3
:1026C000D31A28606A61AB605246494600F04AF965
:1026D000AB681C1BAC603C0000272B6853442B608C
:1026E00043469B68A1441C1B43469C6000D190E775
:1026F000AC682868AB89002FABD132687768914607
:102700000836A4E72900009800F0E6FB00282DD049
:102710000C22AB5E402201201343AB81404279E79B
:10272000002399469A46330000204E4600279946DA
:1027300025E000282FD0B346BE4200D9BB4628680A
:102740002A696B69904203D9AA689C18A34563DC87
:102750005B4500DD82E06C6A5246E9690098A0475B
:10276000041ED5DD361B0120002ECBD043469B68CE
:10277000A2443F1B1C1B43469C6000D149E7002F2D
:10278000D7D14B461B689A464B465F6808239C4648
:10279000E144002FF5D03A000A21504600F0A2F89B
:1027A000002859D053460130C61AC4E72B6983422A
:1027B00017D36B699A46BB4213D8354B38009F42FA
:1027C00000D934485146FDF729FD53464A46434354
:1027D000E96900986C6AA047002899DD04003F1B56
:1027E0007EE7BC4200D93C002200494600F0BAF81E
:1027F000AB682A681B1B1219AB602A60002BEED154
:102800002900009800F068FB002800D080E73F1BFB
:1028100066E73C00BA4657E75146220000F0A2F8AE
:102820002B6829001B192B60009800F055FB00282D
:1028300098D06DE70098FFF79FFA041E00D039E7A3
:10284000009C29692000FFF7BFFD8022AB899343DC
:10285000743A1BB222605DE77E1C6CE75A46514613
:1028600000F080F85A46AB685C469B1AAB602B6858
:102870005B442B6076E70C23009A13600C22AB5E5E
:1028800048E701204042C5E600FCFF7F7FFBFFFFD9
:10289000FEFFFF7FFFFFFF7FF8B54746CE4680B5BE
:1028A000B8278046BF00474489460026002F14D031
:1028B0007B68BC685D1E0DD4A389012B07D90E224D
:1028C000A35E013303D021004046C8470643683465
:1028D000013DF1D23F68002FEAD130000CBC904698
:1028E0009946F8BD70B5CCB2830734D0531E002A88
:1028F0001BD00278A24219D0032504E0013B14D377
:102900000278A24212D001302842F7D1032B0ED810
:10291000002B0AD00278A24208D0C31802E0027845
:10292000A24203D001308342F9D1002070BDFF22C2
:102930000D062D0C114029430D04084E0D4302686D
:1029400007496A40511891433142E3D1043B0430B6
:10295000032BF4D8DCE71300D8E7C04680808080E2
:10296000FFFEFEFEF0B588420AD98B18984207D2C6
:10297000531E002A03D0CA5CC254013BFBD2F0BDF7
:102980000F2A09D80500002AF9D00023CC5CEC54AA
:1029900001339342FAD1F2E70D0005430C00030026
:1029A000AD0729D11500103D2D092F013F18103713
:1029B00026681E6066685E60A6689E60E6681034E1
:1029C000DE601033BB42F3D10F2401352D014919CC
:1029D00014404519032C11D90023CE58EE5004336E
:1029E000E61A032EF9D80323043CA4080134A400FA
:1029F0002D1909191A40C6E70500C6E72200C2E7EB
:102A000070B50C000E25495F00F01CFB002803DBAD
:102A1000236D1B18236570BDA389024A1340A3814F
:102A2000F9E7C046FFEFFFFFF8B516001F000C22C4
:102A30008B5E0C0005000E22895EDA0507D50022A8
:102A4000022300F073FA0C22A35E0E22A15E044A58
:102A500028001340A38132003B0000F01FF8F8BDAE
:102A6000FFEFFFFF70B50C000E25495F00F05EFA26
:102A7000431C06D08023A2895B011343A3812065F8
:102A800070BDA389014A1340A381F9E7FFEFFFFF5F
:102A900010B50E23C95E00F0F9F810BD70B5050041
:102AA000080011000022064C22601A00FDF7BDFE4E
:102AB000431C00D070BD2368002BFBD02B60F9E7CE
:102AC000D40C0020334B70B5050018680C000028AA
:102AD00002D0836B002B3DD00C23E25E93B219072A
:102AE0000DD52169002915D0DA0722D50023A3606E
:102AF000636900205B42A361002922D070BDD90622
:102B000040D55B0729D4216908231343A3819BB2D5
:102B10000029E9D1A0228020920080001A40824240
:102B2000E2D02100280000F045FAA3892169DA07E4
:102B3000DCD400229B0700D46269A2600020002937
:102B4000DCD10C22A35E1A06D8D540221343A38100
:102B50000138D3E7FFF78EFBBEE7216B00290AD0CF
:102B600023004033994204D02800FFF72DFC0C23AA
:102B7000E25E0023236324239A43002321696360D8
:102B80002160C1E709232B60402301201A43A28161
:102B90004042B3E704000020F0B54E464546DE460D
:102BA0005746E0B5364D83B00600286898460F00BA
:102BB0009146FEF761FD334B1C68A4235B00E0588F
:102BC000002852D043681F2B13DC5A1C0192002EA0
:102BD00028D1019A02339B0042601F502868FEF7FB
:102BE0004DFD002003B03CBC90469946A246AB4642
:102BF000F0BD254B002B3DD0C8204000FEF740FD26
:102C0000002837D0A42200235200A158436001605D
:102C1000A05040328350043283500133019300238B
:102C2000002ED6D09A00924682444A4688215446C5
:102C30006250C4225200914681444A4687399940E5
:102C400012688B460A4394464A46614611608422C4
:102C500041465200A150022EBBD102005C468D328B
:102C6000FF3211680C431460B3E720004D30FF3091
:102C7000E050A7E72868FEF701FD01204042B1E7D8
:102C8000400800205431000881160008002370B568
:102C9000064C050008002360FDF7F4FD431C00D03E
:102CA00070BD2368002BFBD02B60F9E7D40C00200B
:102CB00070B505000C1E47D0002802D0836B002B96
:102CC00048D001260C22A35E626E32423FD19B05A2
:102CD00030D52100280000F057F8E36A0600002BE9
:102CE00004D0E1692800984700283CDBA3891B0633
:102CF0003CD4216B002908D023004033994202D0F4
:102D00002800FFF761FB00232363616C002904D0D6
:102D10002800FFF759FB00236364FFF7DBFA002369
:102D2000A381636EDB0726D5A06DFEF7A3FCFFF73A
:102D3000D9FA0AE0A06DFEF79FFC0C22A35E002BDF
:102D4000C7D1636E1E401AD00026300070BD002B24
:102D5000FAD0BEE70126FFF78DFA0C22A35E626E61
:102D60003242F4D1B3E701267642BFE72169280059
:102D7000FFF72AFBBDE7A06DFEF780FCD4E7A06D4E
:102D8000FEF77CFCE1E7C046F0B5C64600B50C2373
:102D9000CA5E804693B20C00190746D480231B01FB
:102DA00013436268A381002A5FDDA56A002D5FD00E
:102DB00042464146166800229BB20A60E169DA0485
:102DC00000D57EE0012300224046A847431C55D091
:102DD000A389A56AE1695B0706D56368C01A236BFE
:102DE000002B01D0E36BC01A002302004046A84725
:102DF000431C4FD0A389364A1340002262602269E7
:102E00001BB2A3812260DB0459D44346216B1E60B0
:102E100000292DD023004033994202D04046FFF7CD
:102E2000D3FA00230020236323E02669002E1FD05D
:102E300022682660951B00229B071DD0A260002DF2
:102E400004DC15E036182D1A002D11DD2B003200A0
:102E5000E1694046676AB8470028F3DCA38940224D
:102E600001201343A381404203E0E26B002A9CDC73
:102E7000002004BC9046F0BD6269DFE743461B6852
:102E8000002BA5D01D2B01D0162B1CD143460020B2
:102E90001E60EEE743461D680C22A35E1D2DDED8A2
:102EA0000C490122E9408A43D9D10949626022696B
:102EB0000B40A3812260DB04A7D5002DA5D120659E
:102EC000A3E7206D87E74022A3891343A381D0E7BE
:102ED000FFF7FFFF0100402070B505000C0000283F
:102EE00002D0836B002B16D00C22A35E0026002B91
:102EF0000FD0626ED20701D49B0513D521002800A4
:102F0000FFF742FF636E0600DB0702D4A3899B052F
:102F100004D5300070BDFFF7ADF9E5E7A06DFEF711
:102F2000ADFBF6E7A06DFEF7A7FBE7E770B5050080
:102F3000080011000022064C22601A00FDF7ACFCCC
:102F4000431C00D070BD2368002BFBD02B60F9E739
:102F5000D40C002070B50C001E000E23C95E96B084
:102F6000150000290EDA00233360A3891B0605D45F
:102F700080230020DB002B6016B070BD40230020B2
:102F80002B60F9E76A4600F071F80028EBDBF022CD
:102F9000019B12021340064A8020944663445A4221
:102FA000534133608023DB002B600001E4E7C0461F
:102FB00000E0FFFF70B58B8982B006000C009B0714
:102FC00007D523004333236023610123636102B0EB
:102FD00070BD01AB6A46FFF7BDFF009905003000E8
:102FE000FEF758FB00281ED08022154BF363A389FF
:102FF00020601343009A1BB26261019AA381206191
:10300000002A02D12B43A381E1E70E23E15E3000C9
:1030100000F040F8002810D00322A3899343012236
:1030200013431BB2EEE70C22A35E9A05CFD4032212
:10303000934302221343A381C3E70C22A35EE1E77B
:103040006522000870B50500080011000022064C3A
:1030500022601A00FDF7DBFB431C00D070BD236823
:10306000002BFBD02B60F9E7D40C0020002370B5B7
:10307000074C0500080011002360FDF706FC431C07
:1030800000D070BD2368002BFBD02B60F9E7C04651
:10309000D40C0020002370B5064C05000800236006
:1030A000FDF7F8FB431C00D070BD2368002BFBD05C
:1030B0002B60F9E7D40C0020F8B5C046F8BC08BC7A
:1030C0009E467047F8B5C046F8BC08BC9E4670479F
:1030D00047414D45204F5645520A505245535320C3
:1030E0005245534554000000537461636B20756E64
:1030F000646572666C6F77006C1300084A130008F1
:1031000058130008641300086413000864130008CF
:1031100064130008641300086413000864130008B3
:103120006413000864130008641300087213000895
:1031300064130008641300086413000806130008F1
:10314000641300085813000864130008641300088F
:083150005E13000808000020D6
:08315800ED210008E900000868
:04316000C1000008A2
:1031640000127A000800002000000000F402002091
:103174005C030020C40300200000000000000000E5
:10318400000000000000000000000000000000003B
:10319400000000000000000000000000000000002B
:1031A400000000000000000000000000000000001B
:1031B400000000000000000000000000000000000B
:1031C40000000000000000000000000000000000FB
:1031D40000000000000000000000000000000000EB
:1031E40000000000000000000000000000000000DB
:1031F40000000000000000000000000000000000CB
:1032040000000000000000000000000000000000BA
:1032140001000000000000000E33CDAB34126DE657
:10322400ECDE05000B0000000000000000000000C0
:10323400000000000000000000000000000000008A
:10324400000000000000000000000000000000007A
:10325400000000000000000000000000000000006A
:10326400000000000000000000000000000000005A
:10359400000000000000000030040020300400207F
:1035A4003804002038040020400400204004002097
:1035B4004804002048040020500400205004002047
:1035C40058040020580400206004002060040020F7
:1035D40068040020680400207004002070040020A7
:1035E4007804002078040020800400208004002057
:1035F4008804002088040020900400209004002007
:103604009804002098040020A0040020A0040020B6
:10361400A8040020A8040020B0040020B004002066
:10362400B8040020B8040020C0040020C004002016
:10363400C8040020C8040020D0040020D0040020C6
:10364400D8040020D8040020E0040020E004002076
:10365400E8040020E8040020F0040020F004002026
:10366400F8040020F80400200005002000050020D4
:103674000805002008050020100500201005002082
:103684001805002018050020200500202005002032
:1036940028050020280500203005002030050020E2
:1036A4003805002038050020400500204005002092
:1036B4004805002048050020500500205005002042
:1036C40058050020580500206005002060050020F2
:1036D40068050020680500207005002070050020A2
:1036E4007805002078050020800500208005002052
:1036F4008805002088050020900500209005002002
:103704009805002098050020A0050020A0050020B1
:10371400A8050020A8050020B0050020B005002061
:10372400B8050020B8050020C0050020C005002011
:10373400C8050020C8050020D0050020D0050020C1
:10374400D8050020D8050020E0050020E005002071
:10375400E8050020E8050020F0050020F005002021
:10376400F8050020F80500200006002000060020CF
:10377400080600200806002010060020100600207D
:10378400180600201806002020060020200600202D
:1037940028060020280600203006002030060020DD
:1037A400380600203806002040060020400600208D
:1037B400480600204806002050060020500600203D
:1037C40058060020580600206006002060060020ED
:1037D400680600206806002070060020700600209D
:1037E400780600207806002080060020800600204D
:1037F40088060020880600209006002090060020FD
:103804009806002098060020A0060020A0060020AC
:10381400A8060020A8060020B0060020B00600205C
:10382400B8060020B8060020C0060020C00600200C
:10383400C8060020C8060020D0060020D0060020BC
:10384400D8060020D8060020E0060020E00600206C
:10385400E8060020E8060020F0060020F00600201C
:10386400F8060020F80600200007002000070020CA
:103874000807002008070020100700201007002078
:103884001807002018070020200700202007002028
:1038940028070020280700203007002030070020D8
:1038A4003807002038070020400700204007002088
:1038B4004807002048070020500700205007002038
:1038C40058070020580700206007002060070020E8
:1038D4006807002068070020700700207007002098
:1038E4007807002078070020800700208007002048
:1038F40088070020880700209007002090070020F8
:103904009807002098070020A0070020A0070020A7
:10391400A8070020A8070020B0070020B007002057
:10392400B8070020B8070020C0070020C007002007
:10393400C8070020C8070020D0070020D0070020B7
:10394400D8070020D8070020E0070020E007002067
:10395400E8070020E8070020F0070020F007002017
:10396400F8070020F80700200008002000080020C5
:103974000808002008080020100800201008002073
:103984001808002018080020200800202008002023
:103994002808002028080020FFFFFFFF0000020085
:0439A400B00C002043
:040000050800147566
:00000001FF
